{
  "contractName": "Funding",
  "abi": [
    {
      "inputs": [],
      "stateMutability": "nonpayable",
      "type": "constructor"
    },
    {
      "inputs": [],
      "name": "numOfFunders",
      "outputs": [
        {
          "internalType": "uint256",
          "name": "",
          "type": "uint256"
        }
      ],
      "stateMutability": "view",
      "type": "function"
    },
    {
      "stateMutability": "payable",
      "type": "receive"
    },
    {
      "inputs": [],
      "name": "addFunds",
      "outputs": [],
      "stateMutability": "payable",
      "type": "function"
    },
    {
      "inputs": [
        {
          "internalType": "uint256",
          "name": "withdrawAmmount",
          "type": "uint256"
        }
      ],
      "name": "withdraw",
      "outputs": [],
      "stateMutability": "nonpayable",
      "type": "function"
    },
    {
      "inputs": [],
      "name": "getAllFunders",
      "outputs": [
        {
          "internalType": "address[]",
          "name": "",
          "type": "address[]"
        }
      ],
      "stateMutability": "view",
      "type": "function"
    },
    {
      "inputs": [
        {
          "internalType": "uint256",
          "name": "index",
          "type": "uint256"
        }
      ],
      "name": "getFundersAtIndex",
      "outputs": [
        {
          "internalType": "address",
          "name": "",
          "type": "address"
        }
      ],
      "stateMutability": "view",
      "type": "function"
    }
  ],
  "bytecode": "0x608060405234801561001057600080fd5b5033600360006101000a81548173ffffffffffffffffffffffffffffffffffffffff021916908373ffffffffffffffffffffffffffffffffffffffff160217905550610780806100616000396000f3fe60806040526004361061004e5760003560e01c80632e1a7d4d1461005a5780636fbbb55d14610083578063a26759cb146100ae578063af7f2c9b146100b8578063ca64abcd146100e357610055565b3661005557005b600080fd5b34801561006657600080fd5b50610081600480360381019061007c919061043e565b610120565b005b34801561008f57600080fd5b506100986101b5565b6040516100a5919061055b565b60405180910390f35b6100b66102af565b005b3480156100c457600080fd5b506100cd6103cd565b6040516100da919061058c565b60405180910390f35b3480156100ef57600080fd5b5061010a6004803603810190610105919061043e565b6103d3565b60405161011791906105b6565b60405180910390f35b67016345785d8a000081111561016b576040517f08c379a000000000000000000000000000000000000000000000000000000000815260040161016290610654565b60405180910390fd5b3373ffffffffffffffffffffffffffffffffffffffff166108fc829081150290604051600060405180830381858888f193505050501580156101b1573d6000803e3d6000fd5b5050565b6060600060025467ffffffffffffffff8111156101d5576101d4610674565b5b6040519080825280602002602001820160405280156102035781602001602082028036833780820191505090505b50905060005b6002548110156102a7576001600082815260200190815260200160002060009054906101000a900473ffffffffffffffffffffffffffffffffffffffff1682828151811061025a576102596106a3565b5b602002602001019073ffffffffffffffffffffffffffffffffffffffff16908173ffffffffffffffffffffffffffffffffffffffff1681525050808061029f90610701565b915050610209565b508091505090565b60003390506000808273ffffffffffffffffffffffffffffffffffffffff1673ffffffffffffffffffffffffffffffffffffffff16815260200190815260200160002060009054906101000a900460ff166103ca5760006002600081548092919061031990610701565b91905055905060016000808473ffffffffffffffffffffffffffffffffffffffff1673ffffffffffffffffffffffffffffffffffffffff16815260200190815260200160002060006101000a81548160ff021916908315150217905550816001600083815260200190815260200160002060006101000a81548173ffffffffffffffffffffffffffffffffffffffff021916908373ffffffffffffffffffffffffffffffffffffffff160217905550505b50565b60025481565b6000806103de6101b5565b90508083815181106103f3576103f26106a3565b5b6020026020010151915050919050565b600080fd5b6000819050919050565b61041b81610408565b811461042657600080fd5b50565b60008135905061043881610412565b92915050565b60006020828403121561045457610453610403565b5b600061046284828501610429565b91505092915050565b600081519050919050565b600082825260208201905092915050565b6000819050602082019050919050565b600073ffffffffffffffffffffffffffffffffffffffff82169050919050565b60006104c282610497565b9050919050565b6104d2816104b7565b82525050565b60006104e483836104c9565b60208301905092915050565b6000602082019050919050565b60006105088261046b565b6105128185610476565b935061051d83610487565b8060005b8381101561054e57815161053588826104d8565b9750610540836104f0565b925050600181019050610521565b5085935050505092915050565b6000602082019050818103600083015261057581846104fd565b905092915050565b61058681610408565b82525050565b60006020820190506105a1600083018461057d565b92915050565b6105b0816104b7565b82525050565b60006020820190506105cb60008301846105a7565b92915050565b600082825260208201905092915050565b7f43616e6e6f74207769746864726177206d6f7465207468616e20302e3120657460008201527f6865720000000000000000000000000000000000000000000000000000000000602082015250565b600061063e6023836105d1565b9150610649826105e2565b604082019050919050565b6000602082019050818103600083015261066d81610631565b9050919050565b7f4e487b7100000000000000000000000000000000000000000000000000000000600052604160045260246000fd5b7f4e487b7100000000000000000000000000000000000000000000000000000000600052603260045260246000fd5b7f4e487b7100000000000000000000000000000000000000000000000000000000600052601160045260246000fd5b600061070c82610408565b91507fffffffffffffffffffffffffffffffffffffffffffffffffffffffffffffffff82141561073f5761073e6106d2565b5b60018201905091905056fea2646970667358221220d2749b803cf7a842703c8a3bb6735544806bf2790242aaf8f76e2e1b074cc54f64736f6c63430008090033",
  "immutableReferences": {},
  "source": "pragma solidity  >=0.4.22 <0.9.0;\n\n\n\n\n\n/*so here we want to create a contract who can recieve funds from accounts\nand through web 3 get all funders and funder at specific  index \n\nif we create a address[] memory duplicates will be possible so we will create a mapping(key,value)\n*/\n\n\ncontract Funding{\n    //creating receive special function in order for our contract be able to accept payments\n    //payable modifier\n    receive() external payable{}\n\n    //setting unit to index the  _funders\n    mapping(address => bool) private funders;\n    //creeting _funders to index addresses of funders\n    mapping(uint => address) private lutfunders;\n    uint public numOfFunders;\n\n    address owner;\n\n    constructor () {\n        owner = msg.sender;\n   \n    }\n\n    modifier limitWithdrawAmount(uint withdrawAmmount){\n        require(\n            withdrawAmmount <= 1000000000000000000,\n            \"Cannot withdraw more that 0.1 ether\"\n        );\n        //send error or execute function with modifier is set\n        _;\n    }\n\n    modifier onlyOwner{\n        require(\n            msg.sender == owner\n            ,\"Only owner can call this function\"\n        );\n        _;\n    }\n\n    function addFunds() external payable{\n        \n        //should create a address object for key value which will be msg.sender\n        address key =msg.sender;\n        //check if key value exists inside mapping  and add it\n\n        if(!funders[key]){\n            //index increases after first iteration\n            uint index = numOfFunders++;\n        \n            funders[key]=true;\n            lutfunders[index]= key;\n        }\n    }\n\n    //specify ammount\n    function withdraw(uint withdrawAmmount) external   {\n \n        require(withdrawAmmount <= 100000000000000000 , \"Cannot withdraw mote than 0.1 ether\");\n        //if we have no funds it should throw error\n        //if(withdrawAmmount < 1000000000000000000 )\n        payable(msg.sender).transfer(withdrawAmmount);\n        \n        \n    }\n\n\n    //public to be able to called by other functions withing smart contract\n    //view, access storage but not modifying it\n    function getAllFunders() public view returns(address[] memory){\n        \n        //creating address[] to return \n        address[] memory _funders= new address[](numOfFunders);\n\n        \n         //iteration for passing mapping key value  to address[]\n        for (uint i=0 ; i<numOfFunders ; i++){\n            _funders[i]=lutfunders[i];\n\n        }\n        //should return address[] but _funders are mapping\n        return  _funders;\n    }\n\n    function getFundersAtIndex(uint index) external view returns(address){\n    //_funders is not accesible/visible outside of function , but  function getallFunders() is public and returns the _funders\n    address[] memory _indexfunders = getAllFunders();\n\n    return _indexfunders[index];\n    \n}\n\n}\n\n\n//const instance = await Funding.deployed()\n\n//instance.addFunds({from:accounts[0], value:'2000000000000000000'})\n//instance.addFunds({from: account[1], value:'1000000000000000000'})\n\n//instance.getAllFunders()\n//instance.getFundersAtIndex()\n\n//instance.withdraw('500000000000000000', {from:accounts[1]})",
  "sourcePath": "/home/efstathioskaranasios/EthereumDevelopment/funding_dapp/contracts/Funding.sol",
  "compiler": {
    "name": "solc",
    "version": "0.8.9+commit.e5eed63a.Emscripten.clang"
  },
  "schemaVersion": "3.4.3",
  "updatedAt": "2021-11-17T18:11:03.276Z",
  "devdoc": {
    "kind": "dev",
    "methods": {},
    "version": 1
  },
  "userdoc": {
    "kind": "user",
    "methods": {},
    "version": 1
  }
}